{
  "contractName": "MusiciansManager",
  "abi": [
    {
      "inputs": [],
      "stateMutability": "nonpayable",
      "type": "constructor"
    },
    {
      "anonymous": false,
      "inputs": [
        {
          "components": [
            {
              "internalType": "string",
              "name": "_title",
              "type": "string"
            },
            {
              "internalType": "uint256",
              "name": "_duration",
              "type": "uint256"
            }
          ],
          "indexed": false,
          "internalType": "struct MusiciansManager.Track[]",
          "name": "_tracks",
          "type": "tuple[]"
        }
      ],
      "name": "getTheTracks",
      "type": "event"
    },
    {
      "anonymous": false,
      "inputs": [
        {
          "indexed": false,
          "internalType": "string",
          "name": "_artistName",
          "type": "string"
        }
      ],
      "name": "musicianCreated",
      "type": "event"
    },
    {
      "anonymous": false,
      "inputs": [
        {
          "indexed": false,
          "internalType": "string",
          "name": "_artistName",
          "type": "string"
        },
        {
          "indexed": false,
          "internalType": "string",
          "name": "_title",
          "type": "string"
        }
      ],
      "name": "trackAdded",
      "type": "event"
    },
    {
      "inputs": [
        {
          "internalType": "address",
          "name": "_musicianAddress",
          "type": "address"
        },
        {
          "internalType": "string",
          "name": "_artistName",
          "type": "string"
        }
      ],
      "name": "addMusician",
      "outputs": [],
      "stateMutability": "nonpayable",
      "type": "function"
    },
    {
      "inputs": [
        {
          "internalType": "address",
          "name": "_musicianAddress",
          "type": "address"
        },
        {
          "internalType": "string",
          "name": "_title",
          "type": "string"
        },
        {
          "internalType": "uint256",
          "name": "_duration",
          "type": "uint256"
        }
      ],
      "name": "addTrack",
      "outputs": [],
      "stateMutability": "nonpayable",
      "type": "function"
    },
    {
      "inputs": [
        {
          "internalType": "address",
          "name": "_musicianAddress",
          "type": "address"
        }
      ],
      "name": "getTracks",
      "outputs": [],
      "stateMutability": "nonpayable",
      "type": "function"
    }
  ],
  "bytecode": "0x608060405234801561001057600080fd5b5033600160006101000a81548173ffffffffffffffffffffffffffffffffffffffff021916908373ffffffffffffffffffffffffffffffffffffffff160217905550610e13806100616000396000f3fe608060405234801561001057600080fd5b50600436106100415760003560e01c80636bcc7782146100465780637b061e3814610062578063b14efb5f1461007e575b600080fd5b610060600480360381019061005b9190610626565b61009a565b005b61007c60048036038101906100779190610799565b610114565b005b6100986004803603810190610093919061082b565b6102c5565b005b7f1c56b8acd78e4cf62b13bf2065d86aaa91f6e5d4ca142798d8e8d03edc5a4a006000808373ffffffffffffffffffffffffffffffffffffffff1673ffffffffffffffffffffffffffffffffffffffff1681526020019081526020016000206001016040516101099190610af0565b60405180910390a150565b600160009054906101000a900473ffffffffffffffffffffffffffffffffffffffff1673ffffffffffffffffffffffffffffffffffffffff163373ffffffffffffffffffffffffffffffffffffffff16146101a4576040517f08c379a000000000000000000000000000000000000000000000000000000000815260040161019b90610b6f565b60405180910390fd5b60008060008473ffffffffffffffffffffffffffffffffffffffff1673ffffffffffffffffffffffffffffffffffffffff16815260200190815260200160002060000180546101f2906108fa565b905014610234576040517f08c379a000000000000000000000000000000000000000000000000000000000815260040161022b90610c01565b60405180910390fd5b806000808473ffffffffffffffffffffffffffffffffffffffff1673ffffffffffffffffffffffffffffffffffffffff1681526020019081526020016000206000019080519060200190610289929190610511565b507f08e51fe4815297917128fa893659743d8634168b341c5e8e6d4c0c5a81394bcc816040516102b99190610c98565b60405180910390a15050565b600160009054906101000a900473ffffffffffffffffffffffffffffffffffffffff1673ffffffffffffffffffffffffffffffffffffffff163373ffffffffffffffffffffffffffffffffffffffff1614610355576040517f08c379a000000000000000000000000000000000000000000000000000000000815260040161034c90610b6f565b60405180910390fd5b60008060008573ffffffffffffffffffffffffffffffffffffffff1673ffffffffffffffffffffffffffffffffffffffff16815260200190815260200160002060000180546103a3906108fa565b9050116103e5576040517f08c379a00000000000000000000000000000000000000000000000000000000081526004016103dc90610d06565b60405180910390fd5b600060405180604001604052808481526020018381525090506000808573ffffffffffffffffffffffffffffffffffffffff1673ffffffffffffffffffffffffffffffffffffffff1681526020019081526020016000206001018190806001815401808255809150506001900390600052602060002090600202016000909190919091506000820151816000019080519060200190610485929190610511565b506020820151816001015550507f5115c96efdf6d18732cb7d6340f8d69c0d0f4f2c14e9b01b435a1190ce443c3d6000808673ffffffffffffffffffffffffffffffffffffffff1673ffffffffffffffffffffffffffffffffffffffff16815260200190815260200160002060000184604051610503929190610da6565b60405180910390a150505050565b82805461051d906108fa565b90600052602060002090601f01602090048101928261053f5760008555610586565b82601f1061055857805160ff1916838001178555610586565b82800160010185558215610586579182015b8281111561058557825182559160200191906001019061056a565b5b5090506105939190610597565b5090565b5b808211156105b0576000816000905550600101610598565b5090565b6000604051905090565b600080fd5b600080fd5b600073ffffffffffffffffffffffffffffffffffffffff82169050919050565b60006105f3826105c8565b9050919050565b610603816105e8565b811461060e57600080fd5b50565b600081359050610620816105fa565b92915050565b60006020828403121561063c5761063b6105be565b5b600061064a84828501610611565b91505092915050565b600080fd5b600080fd5b6000601f19601f8301169050919050565b7f4e487b7100000000000000000000000000000000000000000000000000000000600052604160045260246000fd5b6106a68261065d565b810181811067ffffffffffffffff821117156106c5576106c461066e565b5b80604052505050565b60006106d86105b4565b90506106e4828261069d565b919050565b600067ffffffffffffffff8211156107045761070361066e565b5b61070d8261065d565b9050602081019050919050565b82818337600083830152505050565b600061073c610737846106e9565b6106ce565b90508281526020810184848401111561075857610757610658565b5b61076384828561071a565b509392505050565b600082601f8301126107805761077f610653565b5b8135610790848260208601610729565b91505092915050565b600080604083850312156107b0576107af6105be565b5b60006107be85828601610611565b925050602083013567ffffffffffffffff8111156107df576107de6105c3565b5b6107eb8582860161076b565b9150509250929050565b6000819050919050565b610808816107f5565b811461081357600080fd5b50565b600081359050610825816107ff565b92915050565b600080600060608486031215610844576108436105be565b5b600061085286828701610611565b935050602084013567ffffffffffffffff811115610873576108726105c3565b5b61087f8682870161076b565b925050604061089086828701610816565b9150509250925092565b600081549050919050565b600082825260208201905092915050565b60008190508160005260206000209050919050565b7f4e487b7100000000000000000000000000000000000000000000000000000000600052602260045260246000fd5b6000600282049050600182168061091257607f821691505b60208210811415610926576109256108cb565b5b50919050565b600082825260208201905092915050565b60008190508160005260206000209050919050565b6000815461095f816108fa565b610969818661092c565b945060018216600081146109845760018114610996576109c9565b60ff19831686526020860193506109c9565b61099f8561093d565b60005b838110156109c1578154818901526001820191506020810190506109a2565b808801955050505b50505092915050565b60008160001c9050919050565b6000819050919050565b60006109fc6109f7836109d2565b6109df565b9050919050565b610a0c816107f5565b82525050565b60006040830160008084018583036000870152610a2f8382610952565b92505060018401549050610a42816109e9565b610a4f6020870182610a03565b50819250505092915050565b6000610a678383610a12565b905092915050565b6000600282019050919050565b6000610a878261089a565b610a9181856108a5565b935083602082028501610aa3856108b6565b8060005b85811015610ade57848403895281610abf8582610a5b565b9450610aca83610a6f565b925060208a01995050600181019050610aa7565b50829750879550505050505092915050565b60006020820190508181036000830152610b0a8184610a7c565b905092915050565b600082825260208201905092915050565b7f4e6f7420746865206f776e657200000000000000000000000000000000000000600082015250565b6000610b59600d83610b12565b9150610b6482610b23565b602082019050919050565b60006020820190508181036000830152610b8881610b4c565b9050919050565b7f54686973206d7573696369616e2068617320616c7265616479206265656e206360008201527f7265617465640000000000000000000000000000000000000000000000000000602082015250565b6000610beb602683610b12565b9150610bf682610b8f565b604082019050919050565b60006020820190508181036000830152610c1a81610bde565b9050919050565b600081519050919050565b60005b83811015610c4a578082015181840152602081019050610c2f565b83811115610c59576000848401525b50505050565b6000610c6a82610c21565b610c748185610b12565b9350610c84818560208601610c2c565b610c8d8161065d565b840191505092915050565b60006020820190508181036000830152610cb28184610c5f565b905092915050565b7f54686973206d7573696369616e20646f657374206e6f74206578697374000000600082015250565b6000610cf0601d83610b12565b9150610cfb82610cba565b602082019050919050565b60006020820190508181036000830152610d1f81610ce3565b9050919050565b60008154610d33816108fa565b610d3d8186610b12565b94506001821660008114610d585760018114610d6a57610d9d565b60ff1983168652602086019350610d9d565b610d738561093d565b60005b83811015610d9557815481890152600182019150602081019050610d76565b808801955050505b50505092915050565b60006040820190508181036000830152610dc08185610d26565b90508181036020830152610dd48184610c5f565b9050939250505056fea26469706673582212200faafbed8ef99df45fee831e25b9a860afd2f267500b78036f221c4af9ffbf0b64736f6c63430008090033",
  "immutableReferences": {},
  "source": "// SPDX-License-Identifier: MIT\npragma solidity ^0.8.9;\n\ncontract MusiciansManager {\n    ////pour envoyer les information vers frend-end\n    event musicianCreated(string _artistName);\n    event trackAdded(string _artistName, string _title);\n    event getTheTracks(Track[] _tracks);\n\n    struct Track {\n        string _title;\n        uint _duration;\n    }\n\n    struct Musician {\n        string _artistName;\n        Track[] _tracks;\n    }\n\n    mapping(address => Musician) Musicians;\n\n    address owner;\n\n    constructor() {\n        owner = msg.sender;\n    }\n\n    modifier onlyOwner() {\n        require(msg.sender == owner, \"Not the owner\");\n        _;\n    }\n\n    function addMusician(\n        address _musicianAddress,\n        string memory _artistName\n    ) external onlyOwner {\n        require(\n            bytes(Musicians[_musicianAddress]._artistName).length == 0,\n            \"This musician has already been created\"\n        );\n        Musicians[_musicianAddress]._artistName = _artistName;\n        emit musicianCreated(_artistName);\n    }\n\n    function addTrack(\n        address _musicianAddress,\n        string memory _title,\n        uint _duration\n    ) external onlyOwner {\n        require(\n            bytes(Musicians[_musicianAddress]._artistName).length > 0,\n            \"This musician doest not exist\"\n        );\n        Track memory thisTrack = Track(_title, _duration);\n\n        Musicians[_musicianAddress]._tracks.push(thisTrack);\n        emit trackAdded(Musicians[_musicianAddress]._artistName, _title);\n    }\n\n    function getTracks(address _musicianAddress) external {\n        emit getTheTracks(Musicians[_musicianAddress]._tracks);\n    }\n}\n",
  "sourcePath": "C:\\Users\\DELL\\Desktop\\labelContract\\contracts\\MusiciansManager.sol",
  "compiler": {
    "name": "solc",
    "version": "0.8.9+commit.e5eed63a.Emscripten.clang"
  },
  "schemaVersion": "3.4.16",
  "updatedAt": "2024-03-13T20:30:19.894Z",
  "devdoc": {
    "kind": "dev",
    "methods": {},
    "version": 1
  },
  "userdoc": {
    "kind": "user",
    "methods": {},
    "version": 1
  }
}